:10000000CDC04AC116C1DAC03AC1D8C0D7C01BC1E1
:10001000D5C0D4C0D3C0D2C0D1C0D0C0CFC0CEC054
:10002000CDC0CCC0CBC0CAC0C9C0C8C0C7C0C6C084
:10003000C5C0C4C0808386898C8F9295989C9FA2EE
:10004000A5A8ABAEB0B3B6B9BCBFC1C4C7C9CCCE0E
:10005000D1D3D5D8DADCDEE0E2E4E6E8EAEBEDEF96
:10006000F0F2F3F4F6F7F8F9FAFBFBFCFDFDFEFE07
:10007000FEFFFFFFFFFFFFFFFEFEFDFDFCFCFBFAA6
:10008000F9F8F7F6F5F4F2F1EFEEECEBE9E7E5E37A
:10009000E1DFDDDBD9D7D4D2CFCDCAC8C5C3C0BD5F
:1000A000BAB8B5B2AFACA9A6A3A09D9A9794918E09
:1000B0008A8784817E7B7875716E6B6865625F5C10
:1000C000595653504D4A4745423F3C3A37353230F6
:1000D0002D2B28262422201E1C1A1816141311104A
:1000E0000E0D0B0A090807060504030302020101AD
:1000F00000000000000000010101020203040405E9
:10010000060708090B0C0D0F1012141517191B1DEB
:100110001F212325272A2C2E313336383B3E4043DE
:1001200046494C4F5154575A5D6063676A6D70730E
:1001300076797C7F000000000000000000000000D5
:1001400000000000000000000000000000000000AF
:10015000000000000000000000000000000000009F
:10016000000000000000000000000000000000008F
:10017000000000000000000000000000000000007F
:10018000000000000000000000000000000000006F
:100190000000000000000000470F5B0011241FBE9C
:1001A000CFEFD4E0DEBFCDBF11E0A0E0B1E001C0F1
:1001B0001D92A830B107E1F77AD08EC121CF4398C4
:1001C0006EBD0DB407FEFDCF8EBD0DB407FEFDCF95
:1001D000439A089580910101909102019093040146
:1001E000809303012A9A88ED96ED0197F1F72A98FA
:1001F0008FEF8EBD0DB407FEFDCF2EB58FEF8EBDF8
:100200000DB407FEFDCF8EB586958695869590E058
:1002100030E0220F331F22953295307F3227207F26
:100220003227822B932B9093020180930101089532
:1002300008951F920F920FB60F9211240F900FBEC8
:100240000F901F9018951F920F920FB60F921124C6
:100250008F93EF93FF9380910701E4E3F0E0E80FC1
:10026000F11D808187BDE05CFF4F808188BDFF91DB
:10027000EF918F910F900FBE0F901F9018951F92C6
:100280000F920FB60F9211248F9386B18F910F901A
:100290000FBE0F901F9018951F920F920FB60F92DE
:1002A000112416BC0F900FBE0F901F90189583E875
:1002B0008093640078948EE284B992E095B988E0E6
:1002C00087B997B980EE8AB98FE08093690083E09F
:1002D0008DBB80E280936C0084E080936D009093EE
:1002E000680083EF84BD85E085BD1092890010927F
:1002F000880010928B0010928A0087E08093B100F2
:10030000909370008FEF8093B30081E58CBD81E006
:100310008DBD8FE369E053DF87E06AE050DF87E05F
:100320006BE04DDF81E06CE04ADF2091000140E0AE
:1003300050E068ED76ED3FEFCA010197F1F72F5FCE
:10034000D9F72A9ACB010197F1F72A983EBD0DB44F
:1003500007FEFDCF8EB53EBD0DB407FEFDCF8EB5B9
:10036000EBCF9C01220F331F280F391F220F331FA1
:10037000220F331F220F331F280F391FC90180702E
:10038000907C892B09F498C060E0205137426F5F60
:10039000C9018070907C892BC1F7A901962F87E253
:1003A0002031380728F0A90140515742962F9F5F0E
:1003B000439885E08EBD0DB407FEFDCF9EBD0DB404
:1003C00007FEFDCF439ACA0180709C73892B09F404
:1003D00077C060E0485E53406F5FCA0180709C73D5
:1003E000892BC1F79A01962F83E0483E580728F0E1
:1003F0009A01285E3340962F9F5F439884E08EBD1C
:100400000DB407FEFDCF9EBD0DB407FEFDCF439A90
:10041000C90180789770892B09F456C060E0245692
:1004200030406F5FC90180789770892BC1F7A901AF
:10043000962F2436310528F0A90144565040962FB6
:100440009F5F439883E08EBD0DB407FEFDCF90689B
:100450009EBD0DB407FEFDCF439ACA018077907010
:10046000892BB1F120E04A5050402F5FCA018077BC
:100470009070892BC1F7BA01922F4A30510528F0AC
:10048000BA016A507040922F9F5F439882E08EBD00
:100490000DB407FEFDCF9EBD0DB407FEFDCF439A00
:1004A000439881E08EBD0DB407FEFDCF6EBD0DB447
:1004B00007FEFDCF439A0895A90160E090E06FCF59
:1004C0009A0160E090E090CFA90160E090E0B1CFA8
:0C04D000BA0120E090E0D1CFF894FFCFFB
:00000001FF
